{
  "contractName": "Contest",
  "abi": [
    {
      "constant": true,
      "inputs": [
        {
          "name": "",
          "type": "address"
        }
      ],
      "name": "voters",
      "outputs": [
        {
          "name": "",
          "type": "bool"
        }
      ],
      "payable": false,
      "stateMutability": "view",
      "type": "function",
      "signature": "0xa3ec138d"
    },
    {
      "constant": true,
      "inputs": [
        {
          "name": "",
          "type": "uint256"
        }
      ],
      "name": "contestants",
      "outputs": [
        {
          "name": "id",
          "type": "uint256"
        },
        {
          "name": "name",
          "type": "string"
        },
        {
          "name": "voteCount",
          "type": "uint256"
        }
      ],
      "payable": false,
      "stateMutability": "view",
      "type": "function",
      "signature": "0xdfd50f52"
    },
    {
      "constant": true,
      "inputs": [],
      "name": "contestantsCount",
      "outputs": [
        {
          "name": "",
          "type": "uint256"
        }
      ],
      "payable": false,
      "stateMutability": "view",
      "type": "function",
      "signature": "0xec63d1c8"
    },
    {
      "inputs": [],
      "payable": false,
      "stateMutability": "nonpayable",
      "type": "constructor",
      "signature": "constructor"
    },
    {
      "anonymous": false,
      "inputs": [
        {
          "indexed": true,
          "name": "_contestantId",
          "type": "uint256"
        }
      ],
      "name": "votedEvent",
      "type": "event",
      "signature": "0xfff3c900d938d21d0990d786e819f29b8d05c1ef587b462b939609625b684b16"
    },
    {
      "constant": false,
      "inputs": [
        {
          "name": "_contestantId",
          "type": "uint256"
        }
      ],
      "name": "vote",
      "outputs": [],
      "payable": false,
      "stateMutability": "nonpayable",
      "type": "function",
      "signature": "0x0121b93f"
    }
  ],
  "bytecode": "0x608060405234801561001057600080fd5b5061005e6040805190810160405280601781526020017f434f5334343020436f6d7075746572204e6574776f726b0000000000000000008152506100d7640100000000026401000000009004565b6100d2606060405190810160405280602281526020017f434f533232312046756e64616d656e74616c204461746120537472756374757281526020017f65730000000000000000000000000000000000000000000000000000000000008152506100d7640100000000026401000000009004565b6101f8565b600260008154809291906001019190505550606060405190810160405280600254815260200182815260200160008152506000806002548152602001908152602001600020600082015181600001556020820151816001019080519060200190610142929190610153565b506040820151816002015590505050565b828054600181600116156101000203166002900490600052602060002090601f016020900481019282601f1061019457805160ff19168380011785556101c2565b828001600101855582156101c2579182015b828111156101c15782518255916020019190600101906101a6565b5b5090506101cf91906101d3565b5090565b6101f591905b808211156101f15760008160009055506001016101d9565b5090565b90565b61042e806102076000396000f3fe608060405260043610610062576000357c0100000000000000000000000000000000000000000000000000000000900463ffffffff1680630121b93f14610067578063a3ec138d146100a2578063dfd50f521461010b578063ec63d1c8146101cd575b600080fd5b34801561007357600080fd5b506100a06004803603602081101561008a57600080fd5b81019080803590602001909291905050506101f8565b005b3480156100ae57600080fd5b506100f1600480360360208110156100c557600080fd5b81019080803573ffffffffffffffffffffffffffffffffffffffff16906020019092919050505061031a565b604051808215151515815260200191505060405180910390f35b34801561011757600080fd5b506101446004803603602081101561012e57600080fd5b810190808035906020019092919050505061033a565b6040518084815260200180602001838152602001828103825284818151815260200191508051906020019080838360005b83811015610190578082015181840152602081019050610175565b50505050905090810190601f1680156101bd5780820380516001836020036101000a031916815260200191505b5094505050505060405180910390f35b3480156101d957600080fd5b506101e26103fc565b6040518082815260200191505060405180910390f35b600160003373ffffffffffffffffffffffffffffffffffffffff1673ffffffffffffffffffffffffffffffffffffffff16815260200190815260200160002060009054906101000a900460ff1615151561025157600080fd5b60008111801561026357506002548111155b151561026e57600080fd5b6000808281526020019081526020016000206002016000815480929190600101919050555060018060003373ffffffffffffffffffffffffffffffffffffffff1673ffffffffffffffffffffffffffffffffffffffff16815260200190815260200160002060006101000a81548160ff021916908315150217905550807ffff3c900d938d21d0990d786e819f29b8d05c1ef587b462b939609625b684b1660405160405180910390a250565b60016020528060005260406000206000915054906101000a900460ff1681565b6000602052806000526040600020600091509050806000015490806001018054600181600116156101000203166002900480601f0160208091040260200160405190810160405280929190818152602001828054600181600116156101000203166002900480156103ec5780601f106103c1576101008083540402835291602001916103ec565b820191906000526020600020905b8154815290600101906020018083116103cf57829003601f168201915b5050505050908060020154905083565b6002548156fea165627a7a72305820a1c98863a12622d6ce8ca25b868a6bbbbfe59ed3bbfcb69f19d1171510e00f260029",
  "source": "pragma solidity 0.5.0;\n\n// Creating the contract\ncontract Contest {\n\n\t// Creating a structure to model the contestant\n\tstruct Contestant {\n\t\tuint id;\n\t\tstring name;\n\t\tuint voteCount; \n\t}\n\n\t// Use mapping to get or fetch the contestant details\n\tmapping(uint => Contestant) public contestants;\n\n\t// Mapping to save the list of users/accounts who already voted\n\tmapping(address => bool) public voters;\n\n\t// A public variable to keep track of contestant count\n\tuint public contestantsCount;\n\n\tevent votedEvent (\n\t\tuint indexed _contestantId\n\t\t);\n\n\n\tconstructor () public {\n\t\taddContestant(\"COS440 Computer Network\");\n\t\taddContestant(\"COS221 Fundamental Data Structures\");\n\n\t}\n\n\t// Add a function to add contestant\n\tfunction addContestant (string memory _name) private {\n\t\tcontestantsCount ++;\n\t\tcontestants[contestantsCount] = Contestant(contestantsCount, _name, 0);\n\t}\n\n\tfunction vote (uint _contestantId) public {\n\t\t// Restricting the person who already casted the vote\n\t\trequire(!voters[msg.sender]);\n\t\t// Require that the vote is casted to a valid contestant\n\t\trequire(_contestantId > 0 && _contestantId <= contestantsCount);\n\n\n\t\t// Increase the contestant vote count\n\t\tcontestants[_contestantId].voteCount ++;\n\t\t// Set the voter's voted status to true\n\t\tvoters[msg.sender] = true;\n\n\t\t// Trigger the event\n\t\temit votedEvent(_contestantId);\n\t}\n}",
  "sourcePath": "/media/irdicaushi/ACDA7BA3DA7B688A/Things/AUBG/AUBG 6th Semester/Ethereum Blockchain Independent Study/Contest_App_IrdiC/contracts/Contest.sol",
  "compiler": {
    "name": "solc",
    "version": "0.5.0+commit.1d4f565a.Emscripten.clang"
  },
  "schemaVersion": "3.0.2",
  "updatedAt": "2019-03-17T02:59:45.434Z",
  "devdoc": {
    "methods": {}
  },
  "userdoc": {
    "methods": {}
  }
}